{
  "contractName": "Tyosasyo",
  "abi": [
    {
      "constant": true,
      "inputs": [
        {
          "name": "interfaceId",
          "type": "bytes4"
        }
      ],
      "name": "supportsInterface",
      "outputs": [
        {
          "name": "",
          "type": "bool"
        }
      ],
      "payable": false,
      "stateMutability": "view",
      "type": "function"
    },
    {
      "constant": true,
      "inputs": [],
      "name": "name",
      "outputs": [
        {
          "name": "",
          "type": "string"
        }
      ],
      "payable": false,
      "stateMutability": "view",
      "type": "function"
    },
    {
      "constant": true,
      "inputs": [
        {
          "name": "tokenId",
          "type": "uint256"
        }
      ],
      "name": "getApproved",
      "outputs": [
        {
          "name": "",
          "type": "address"
        }
      ],
      "payable": false,
      "stateMutability": "view",
      "type": "function"
    },
    {
      "constant": false,
      "inputs": [
        {
          "name": "to",
          "type": "address"
        },
        {
          "name": "tokenId",
          "type": "uint256"
        }
      ],
      "name": "approve",
      "outputs": [],
      "payable": false,
      "stateMutability": "nonpayable",
      "type": "function"
    },
    {
      "constant": true,
      "inputs": [
        {
          "name": "tokenId",
          "type": "uint256"
        }
      ],
      "name": "ownerOf",
      "outputs": [
        {
          "name": "",
          "type": "address"
        }
      ],
      "payable": false,
      "stateMutability": "view",
      "type": "function"
    },
    {
      "constant": true,
      "inputs": [
        {
          "name": "owner",
          "type": "address"
        }
      ],
      "name": "balanceOf",
      "outputs": [
        {
          "name": "",
          "type": "uint256"
        }
      ],
      "payable": false,
      "stateMutability": "view",
      "type": "function"
    },
    {
      "constant": true,
      "inputs": [
        {
          "name": "tokenId",
          "type": "uint256"
        }
      ],
      "name": "createrOf",
      "outputs": [
        {
          "name": "",
          "type": "address"
        }
      ],
      "payable": false,
      "stateMutability": "view",
      "type": "function"
    },
    {
      "constant": true,
      "inputs": [],
      "name": "symbol",
      "outputs": [
        {
          "name": "",
          "type": "string"
        }
      ],
      "payable": false,
      "stateMutability": "view",
      "type": "function"
    },
    {
      "constant": false,
      "inputs": [
        {
          "name": "to",
          "type": "address"
        },
        {
          "name": "approved",
          "type": "bool"
        }
      ],
      "name": "setApprovalForAll",
      "outputs": [],
      "payable": false,
      "stateMutability": "nonpayable",
      "type": "function"
    },
    {
      "constant": true,
      "inputs": [
        {
          "name": "tokenId",
          "type": "uint256"
        }
      ],
      "name": "tokenURI",
      "outputs": [
        {
          "name": "",
          "type": "string"
        }
      ],
      "payable": false,
      "stateMutability": "view",
      "type": "function"
    },
    {
      "constant": true,
      "inputs": [
        {
          "name": "owner",
          "type": "address"
        },
        {
          "name": "operator",
          "type": "address"
        }
      ],
      "name": "isApprovedForAll",
      "outputs": [
        {
          "name": "",
          "type": "bool"
        }
      ],
      "payable": false,
      "stateMutability": "view",
      "type": "function"
    },
    {
      "inputs": [],
      "payable": false,
      "stateMutability": "nonpayable",
      "type": "constructor"
    },
    {
      "anonymous": false,
      "inputs": [
        {
          "indexed": true,
          "name": "from",
          "type": "address"
        },
        {
          "indexed": true,
          "name": "to",
          "type": "address"
        },
        {
          "indexed": true,
          "name": "tokenId",
          "type": "uint256"
        }
      ],
      "name": "Transfer",
      "type": "event"
    },
    {
      "anonymous": false,
      "inputs": [
        {
          "indexed": true,
          "name": "owner",
          "type": "address"
        },
        {
          "indexed": true,
          "name": "approved",
          "type": "address"
        },
        {
          "indexed": true,
          "name": "tokenId",
          "type": "uint256"
        }
      ],
      "name": "Approval",
      "type": "event"
    },
    {
      "anonymous": false,
      "inputs": [
        {
          "indexed": true,
          "name": "owner",
          "type": "address"
        },
        {
          "indexed": true,
          "name": "operator",
          "type": "address"
        },
        {
          "indexed": false,
          "name": "approved",
          "type": "bool"
        }
      ],
      "name": "ApprovalForAll",
      "type": "event"
    },
    {
      "constant": false,
      "inputs": [
        {
          "name": "uri",
          "type": "string"
        }
      ],
      "name": "addToken",
      "outputs": [],
      "payable": false,
      "stateMutability": "nonpayable",
      "type": "function"
    },
    {
      "constant": false,
      "inputs": [
        {
          "name": "to",
          "type": "address"
        },
        {
          "name": "index",
          "type": "uint256"
        }
      ],
      "name": "transfer",
      "outputs": [],
      "payable": false,
      "stateMutability": "nonpayable",
      "type": "function"
    },
    {
      "constant": false,
      "inputs": [
        {
          "name": "_index",
          "type": "uint256"
        }
      ],
      "name": "returnT",
      "outputs": [],
      "payable": false,
      "stateMutability": "nonpayable",
      "type": "function"
    },
    {
      "constant": false,
      "inputs": [
        {
          "name": "_index",
          "type": "uint256"
        }
      ],
      "name": "MyreturnT",
      "outputs": [],
      "payable": false,
      "stateMutability": "nonpayable",
      "type": "function"
    },
    {
      "constant": false,
      "inputs": [
        {
          "name": "_detail",
          "type": "string"
        },
        {
          "name": "from",
          "type": "address"
        }
      ],
      "name": "EditTokenA",
      "outputs": [],
      "payable": false,
      "stateMutability": "nonpayable",
      "type": "function"
    },
    {
      "constant": true,
      "inputs": [
        {
          "name": "index",
          "type": "uint256"
        },
        {
          "name": "sd",
          "type": "address"
        }
      ],
      "name": "Inquiry",
      "outputs": [
        {
          "name": "tokenNumber",
          "type": "uint256"
        },
        {
          "name": "mintedby",
          "type": "address"
        },
        {
          "name": "owner",
          "type": "address"
        },
        {
          "name": "detail",
          "type": "string"
        },
        {
          "name": "borrowed",
          "type": "bool"
        }
      ],
      "payable": false,
      "stateMutability": "view",
      "type": "function"
    }
  ],
  "bytecode": "0x60806040523480156200001157600080fd5b506040805190810160405280601381526020017f53757276657920546f6b656e2053797374656d000000000000000000000000008152506040805190810160405280600381526020017f5354530000000000000000000000000000000000000000000000000000000000815250620000bb6301ffc9a77c010000000000000000000000000000000000000000000000000000000002620001b8640100000000026401000000009004565b620000f86380ac58cd7c010000000000000000000000000000000000000000000000000000000002620001b8640100000000026401000000009004565b81600690805190602001906200011092919062000276565b5080600790805190602001906200012992919062000276565b5062000167635b5e139f7c010000000000000000000000000000000000000000000000000000000002620001b8640100000000026401000000009004565b50506000600d8190555033600e60006101000a81548173ffffffffffffffffffffffffffffffffffffffff021916908373ffffffffffffffffffffffffffffffffffffffff16021790555062000325565b63ffffffff7c010000000000000000000000000000000000000000000000000000000002817bffffffffffffffffffffffffffffffffffffffffffffffffffffffff1916141515156200020a57600080fd5b6001600080837bffffffffffffffffffffffffffffffffffffffffffffffffffffffff19167bffffffffffffffffffffffffffffffffffffffffffffffffffffffff1916815260200190815260200160002060006101000a81548160ff02191690831515021790555050565b828054600181600116156101000203166002900490600052602060002090601f016020900481019282601f10620002b957805160ff1916838001178555620002ea565b82800160010185558215620002ea579182015b82811115620002e9578251825591602001919060010190620002cc565b5b509050620002f99190620002fd565b5090565b6200032291905b808211156200031e57600081600090555060010162000304565b5090565b90565b61216580620003356000396000f3006080604052600436106100f1576000357c0100000000000000000000000000000000000000000000000000000000900463ffffffff16806301ffc9a7146100f657806306fdde031461015a578063081812fc146101ea578063095ea7b3146102575780636352211e146102a45780636f09fad31461031157806370a082311461044f578063800c899c146104a657806385216195146105135780638b7e8b56146105405780638ce26108146105c957806395d89b4114610632578063a22cb465146106c2578063a9059cbb14610711578063aa9cf7261461075e578063c87b56dd1461078b578063e985e9c514610831575b600080fd5b34801561010257600080fd5b5061014060048036038101908080357bffffffffffffffffffffffffffffffffffffffffffffffffffffffff191690602001909291905050506108ac565b604051808215151515815260200191505060405180910390f35b34801561016657600080fd5b5061016f610913565b6040518080602001828103825283818151815260200191508051906020019080838360005b838110156101af578082015181840152602081019050610194565b50505050905090810190601f1680156101dc5780820380516001836020036101000a031916815260200191505b509250505060405180910390f35b3480156101f657600080fd5b50610215600480360381019080803590602001909291905050506109b5565b604051808273ffffffffffffffffffffffffffffffffffffffff1673ffffffffffffffffffffffffffffffffffffffff16815260200191505060405180910390f35b34801561026357600080fd5b506102a2600480360381019080803573ffffffffffffffffffffffffffffffffffffffff16906020019092919080359060200190929190505050610a06565b005b3480156102b057600080fd5b506102cf60048036038101908080359060200190929190505050610b4b565b604051808273ffffffffffffffffffffffffffffffffffffffff1673ffffffffffffffffffffffffffffffffffffffff16815260200191505060405180910390f35b34801561031d57600080fd5b5061035c60048036038101908080359060200190929190803573ffffffffffffffffffffffffffffffffffffffff169060200190929190505050610bc9565b604051808681526020018573ffffffffffffffffffffffffffffffffffffffff1673ffffffffffffffffffffffffffffffffffffffff1681526020018473ffffffffffffffffffffffffffffffffffffffff1673ffffffffffffffffffffffffffffffffffffffff1681526020018060200183151515158152602001828103825284818151815260200191508051906020019080838360005b838110156104105780820151818401526020810190506103f5565b50505050905090810190601f16801561043d5780820380516001836020036101000a031916815260200191505b50965050505050505060405180910390f35b34801561045b57600080fd5b50610490600480360381019080803573ffffffffffffffffffffffffffffffffffffffff169060200190929190505050610f93565b6040518082815260200191505060405180910390f35b3480156104b257600080fd5b506104d160048036038101908080359060200190929190505050611017565b604051808273ffffffffffffffffffffffffffffffffffffffff1673ffffffffffffffffffffffffffffffffffffffff16815260200191505060405180910390f35b34801561051f57600080fd5b5061053e60048036038101908080359060200190929190505050611095565b005b34801561054c57600080fd5b506105c7600480360381019080803590602001908201803590602001908080601f0160208091040260200160405190810160405280939291908181526020018383808284378201915050505050509192919290803573ffffffffffffffffffffffffffffffffffffffff169060200190929190505050611333565b005b3480156105d557600080fd5b50610630600480360381019080803590602001908201803590602001908080601f01602080910402602001604051908101604052809392919081815260200183838082843782019150505050505091929192905050506113a7565b005b34801561063e57600080fd5b506106476113d5565b6040518080602001828103825283818151815260200191508051906020019080838360005b8381101561068757808201518184015260208101905061066c565b50505050905090810190601f1680156106b45780820380516001836020036101000a031916815260200191505b509250505060405180910390f35b3480156106ce57600080fd5b5061070f600480360381019080803573ffffffffffffffffffffffffffffffffffffffff169060200190929190803515159060200190929190505050611477565b005b34801561071d57600080fd5b5061075c600480360381019080803573ffffffffffffffffffffffffffffffffffffffff169060200190929190803590602001909291905050506115b3565b005b34801561076a57600080fd5b50610789600480360381019080803590602001909291905050506117ae565b005b34801561079757600080fd5b506107b6600480360381019080803590602001909291905050506118ac565b6040518080602001828103825283818151815260200191508051906020019080838360005b838110156107f65780820151818401526020810190506107db565b50505050905090810190601f1680156108235780820380516001836020036101000a031916815260200191505b509250505060405180910390f35b34801561083d57600080fd5b50610892600480360381019080803573ffffffffffffffffffffffffffffffffffffffff169060200190929190803573ffffffffffffffffffffffffffffffffffffffff169060200190929190505050611975565b604051808215151515815260200191505060405180910390f35b6000806000837bffffffffffffffffffffffffffffffffffffffffffffffffffffffff19167bffffffffffffffffffffffffffffffffffffffffffffffffffffffff1916815260200190815260200160002060009054906101000a900460ff169050919050565b606060068054600181600116156101000203166002900480601f0160208091040260200160405190810160405280929190818152602001828054600181600116156101000203166002900480156109ab5780601f10610980576101008083540402835291602001916109ab565b820191906000526020600020905b81548152906001019060200180831161098e57829003601f168201915b5050505050905090565b60006109c082611a09565b15156109cb57600080fd5b6003600083815260200190815260200160002060009054906101000a900473ffffffffffffffffffffffffffffffffffffffff169050919050565b6000610a1182610b4b565b90508073ffffffffffffffffffffffffffffffffffffffff168373ffffffffffffffffffffffffffffffffffffffff1614151515610a4e57600080fd5b8073ffffffffffffffffffffffffffffffffffffffff163373ffffffffffffffffffffffffffffffffffffffff161480610a8e5750610a8d8133611975565b5b1515610a9957600080fd5b826003600084815260200190815260200160002060006101000a81548173ffffffffffffffffffffffffffffffffffffffff021916908373ffffffffffffffffffffffffffffffffffffffff160217905550818373ffffffffffffffffffffffffffffffffffffffff168273ffffffffffffffffffffffffffffffffffffffff167f8c5be1e5ebec7d5bd14f71427d1e84f3dd0314c0f7b2291e5b200ac8c7c3b92560405160405180910390a4505050565b6000806001600084815260200190815260200160002060009054906101000a900473ffffffffffffffffffffffffffffffffffffffff169050600073ffffffffffffffffffffffffffffffffffffffff168173ffffffffffffffffffffffffffffffffffffffff1614151515610bc057600080fd5b80915050919050565b60008060006060600080610bdb612036565b600160038a811515610be957fe5b061415610c3757600b60008973ffffffffffffffffffffffffffffffffffffffff1673ffffffffffffffffffffffffffffffffffffffff168152602001908152602001600020549150610cdd565b600260038a811515610c4557fe5b061415610c96576001600b60008a73ffffffffffffffffffffffffffffffffffffffff1673ffffffffffffffffffffffffffffffffffffffff16815260200190815260200160002054019150610cdc565b6002600b60008a73ffffffffffffffffffffffffffffffffffffffff1673ffffffffffffffffffffffffffffffffffffffff168152602001908152602001600020540191505b5b6009600083815260200190815260200160002060a06040519081016040529081600082015481526020016001820160009054906101000a900473ffffffffffffffffffffffffffffffffffffffff1673ffffffffffffffffffffffffffffffffffffffff1673ffffffffffffffffffffffffffffffffffffffff1681526020016002820160009054906101000a900473ffffffffffffffffffffffffffffffffffffffff1673ffffffffffffffffffffffffffffffffffffffff1673ffffffffffffffffffffffffffffffffffffffff168152602001600382018054600181600116156101000203166002900480601f016020809104026020016040519081016040528092919081815260200182805460018160011615610100020316600290048015610e4b5780601f10610e2057610100808354040283529160200191610e4b565b820191906000526020600020905b815481529060010190602001808311610e2e57829003601f168201915b505050505081526020016004820160009054906101000a900460ff1615151515815250509050806040015173ffffffffffffffffffffffffffffffffffffffff163373ffffffffffffffffffffffffffffffffffffffff16141515610f64576040517f08c379a00000000000000000000000000000000000000000000000000000000081526004018080602001828103825260458152602001807fe38388e383bce382afe383b3e799bae8a18ce88085e381afe3819de381aee8aa81526020017fbfe69fbbe69bb8e68385e5a0b1e381afe58f82e785a7e381a7e3818de381bee381526020017f819be3829300000000000000000000000000000000000000000000000000000081525060600191505060405180910390fd5b806000015196508060200151955080604001519450806060015193508060800151925050509295509295909350565b60008073ffffffffffffffffffffffffffffffffffffffff168273ffffffffffffffffffffffffffffffffffffffff1614151515610fd057600080fd5b600460008373ffffffffffffffffffffffffffffffffffffffff1673ffffffffffffffffffffffffffffffffffffffff168152602001908152602001600020549050919050565b6000806002600084815260200190815260200160002060009054906101000a900473ffffffffffffffffffffffffffffffffffffffff169050600073ffffffffffffffffffffffffffffffffffffffff168173ffffffffffffffffffffffffffffffffffffffff161415151561108c57600080fd5b80915050919050565b600115156009600083815260200190815260200160002060040160009054906101000a900460ff16151514801561112e57506009600082815260200190815260200160002060010160009054906101000a900473ffffffffffffffffffffffffffffffffffffffff1673ffffffffffffffffffffffffffffffffffffffff163373ffffffffffffffffffffffffffffffffffffffff1614155b801561119b57506009600082815260200190815260200160002060020160009054906101000a900473ffffffffffffffffffffffffffffffffffffffff1673ffffffffffffffffffffffffffffffffffffffff163373ffffffffffffffffffffffffffffffffffffffff16145b1515611235576040517f08c379a000000000000000000000000000000000000000000000000000000000815260040180806020018281038252603f8152602001807fe38182e381aae3819fe381afe3819de381aee38388e383bce382afe383b3e38181526020017faee68980e69c89e88085e381a7e381afe38182e3828ae381bee3819be382930081525060400191505060405180910390fd5b611276336009600084815260200190815260200160002060010160009054906101000a900473ffffffffffffffffffffffffffffffffffffffff1683611a7b565b60006009600083815260200190815260200160002060040160006101000a81548160ff0219169083151502179055506009600082815260200190815260200160002060010160009054906101000a900473ffffffffffffffffffffffffffffffffffffffff166009600083815260200190815260200160002060020160006101000a81548173ffffffffffffffffffffffffffffffffffffffff021916908373ffffffffffffffffffffffffffffffffffffffff16021790555050565b6000600b60008373ffffffffffffffffffffffffffffffffffffffff1673ffffffffffffffffffffffffffffffffffffffff168152602001908152602001600020549050826009600083815260200190815260200160002060030190805190602001906113a1929190612094565b50505050565b600d600081548092919060010191905055506113c63333600d54611b2d565b6113d2600d5482611bd5565b50565b606060078054600181600116156101000203166002900480601f01602080910402602001604051908101604052809291908181526020018280546001816001161561010002031660029004801561146d5780601f106114425761010080835404028352916020019161146d565b820191906000526020600020905b81548152906001019060200180831161145057829003601f168201915b5050505050905090565b3373ffffffffffffffffffffffffffffffffffffffff168273ffffffffffffffffffffffffffffffffffffffff16141515156114b257600080fd5b80600560003373ffffffffffffffffffffffffffffffffffffffff1673ffffffffffffffffffffffffffffffffffffffff16815260200190815260200160002060008473ffffffffffffffffffffffffffffffffffffffff1673ffffffffffffffffffffffffffffffffffffffff16815260200190815260200160002060006101000a81548160ff0219169083151502179055508173ffffffffffffffffffffffffffffffffffffffff163373ffffffffffffffffffffffffffffffffffffffff167f17307eab39ab6107e8899845ad3d59bd9653f200f220920489ca2b5937696c3183604051808215151515815260200191505060405180910390a35050565b600015156009600083815260200190815260200160002060040160009054906101000a900460ff16151514801561164b57506009600082815260200190815260200160002060010160009054906101000a900473ffffffffffffffffffffffffffffffffffffffff1673ffffffffffffffffffffffffffffffffffffffff163373ffffffffffffffffffffffffffffffffffffffff16145b15156116e5576040517f08c379a000000000000000000000000000000000000000000000000000000000815260040180806020018281038252603f8152602001807fe38182e381aae3819fe381afe3819de381aee38388e383bce382afe383b3e38181526020017faee68980e69c89e88085e381a7e381afe38182e3828ae381bee3819be382930081525060400191505060405180910390fd5b6117266009600083815260200190815260200160002060010160009054906101000a900473ffffffffffffffffffffffffffffffffffffffff168383611a7b565b60016009600083815260200190815260200160002060040160006101000a81548160ff021916908315150217905550816009600083815260200190815260200160002060020160006101000a81548173ffffffffffffffffffffffffffffffffffffffff021916908373ffffffffffffffffffffffffffffffffffffffff1602179055505050565b6117ef6009600083815260200190815260200160002060020160009054906101000a900473ffffffffffffffffffffffffffffffffffffffff163383611a7b565b60006009600083815260200190815260200160002060040160006101000a81548160ff0219169083151502179055506009600082815260200190815260200160002060010160009054906101000a900473ffffffffffffffffffffffffffffffffffffffff166009600083815260200190815260200160002060020160006101000a81548173ffffffffffffffffffffffffffffffffffffffff021916908373ffffffffffffffffffffffffffffffffffffffff16021790555050565b60606118b782611a09565b15156118c257600080fd5b600860008381526020019081526020016000208054600181600116156101000203166002900480601f0160208091040260200160405190810160405280929190818152602001828054600181600116156101000203166002900480156119695780601f1061193e57610100808354040283529160200191611969565b820191906000526020600020905b81548152906001019060200180831161194c57829003601f168201915b50505050509050919050565b6000600560008473ffffffffffffffffffffffffffffffffffffffff1673ffffffffffffffffffffffffffffffffffffffff16815260200190815260200160002060008373ffffffffffffffffffffffffffffffffffffffff1673ffffffffffffffffffffffffffffffffffffffff16815260200190815260200160002060009054906101000a900460ff16905092915050565b6000806001600084815260200190815260200160002060009054906101000a900473ffffffffffffffffffffffffffffffffffffffff169050600073ffffffffffffffffffffffffffffffffffffffff168173ffffffffffffffffffffffffffffffffffffffff161415915050919050565b611a858382611c15565b611a8f8382611d18565b611acd826002600084815260200190815260200160002060009054906101000a900473ffffffffffffffffffffffffffffffffffffffff1683611e47565b808273ffffffffffffffffffffffffffffffffffffffff168473ffffffffffffffffffffffffffffffffffffffff167fddf252ad1be2c89b69c2b068fc378daa952ba7f163c4a11628f55a4df523b3ef60405160405180910390a4505050565b600073ffffffffffffffffffffffffffffffffffffffff168373ffffffffffffffffffffffffffffffffffffffff1614151515611b6957600080fd5b611b74838383611e47565b808373ffffffffffffffffffffffffffffffffffffffff16600073ffffffffffffffffffffffffffffffffffffffff167fddf252ad1be2c89b69c2b068fc378daa952ba7f163c4a11628f55a4df523b3ef60405160405180910390a4505050565b611bde82611a09565b1515611be957600080fd5b80600860008481526020019081526020016000209080519060200190611c10929190612094565b505050565b8173ffffffffffffffffffffffffffffffffffffffff16611c3582610b4b565b73ffffffffffffffffffffffffffffffffffffffff16141515611c5757600080fd5b600073ffffffffffffffffffffffffffffffffffffffff166003600083815260200190815260200160002060009054906101000a900473ffffffffffffffffffffffffffffffffffffffff1673ffffffffffffffffffffffffffffffffffffffff16141515611d145760006003600083815260200190815260200160002060006101000a81548173ffffffffffffffffffffffffffffffffffffffff021916908373ffffffffffffffffffffffffffffffffffffffff1602179055505b5050565b8173ffffffffffffffffffffffffffffffffffffffff16611d3882610b4b565b73ffffffffffffffffffffffffffffffffffffffff16141515611d5a57600080fd5b611dad6001600460008573ffffffffffffffffffffffffffffffffffffffff1673ffffffffffffffffffffffffffffffffffffffff16815260200190815260200160002054611ff490919063ffffffff16565b600460008473ffffffffffffffffffffffffffffffffffffffff1673ffffffffffffffffffffffffffffffffffffffff1681526020019081526020016000208190555060006001600083815260200190815260200160002060006101000a81548173ffffffffffffffffffffffffffffffffffffffff021916908373ffffffffffffffffffffffffffffffffffffffff1602179055505050565b600073ffffffffffffffffffffffffffffffffffffffff166001600083815260200190815260200160002060009054906101000a900473ffffffffffffffffffffffffffffffffffffffff1673ffffffffffffffffffffffffffffffffffffffff16141515611eb557600080fd5b826001600083815260200190815260200160002060006101000a81548173ffffffffffffffffffffffffffffffffffffffff021916908373ffffffffffffffffffffffffffffffffffffffff160217905550816002600083815260200190815260200160002060006101000a81548173ffffffffffffffffffffffffffffffffffffffff021916908373ffffffffffffffffffffffffffffffffffffffff160217905550611fac6001600460008673ffffffffffffffffffffffffffffffffffffffff1673ffffffffffffffffffffffffffffffffffffffff1681526020019081526020016000205461201590919063ffffffff16565b600460008573ffffffffffffffffffffffffffffffffffffffff1673ffffffffffffffffffffffffffffffffffffffff16815260200190815260200160002081905550505050565b60008083831115151561200657600080fd5b82840390508091505092915050565b600080828401905083811015151561202c57600080fd5b8091505092915050565b60a06040519081016040528060008152602001600073ffffffffffffffffffffffffffffffffffffffff168152602001600073ffffffffffffffffffffffffffffffffffffffff168152602001606081526020016000151581525090565b828054600181600116156101000203166002900490600052602060002090601f016020900481019282601f106120d557805160ff1916838001178555612103565b82800160010185558215612103579182015b828111156121025782518255916020019190600101906120e7565b5b5090506121109190612114565b5090565b61213691905b8082111561213257600081600090555060010161211a565b5090565b905600a165627a7a72305820144afda67a87bcc8434083d7ff6600c62543da28344ea5393566963ba87ae05e0029",
  "source": "pragma solidity >=0.4.22 <0.7.0;\r\n\r\nimport \"../ERC721/ERC721Metadata.sol\";\r\n\r\ncontract Tyosasyo is ERC721Metadata{\r\n\r\n    struct Survey {\r\n        uint256 tokenNumber;\r\n        address mintedby;\r\n        address owner;\r\n        string detail;\r\n        bool borrowed;\r\n    }\r\n\r\n    mapping (uint => Survey) private surveys;\r\n    mapping (bytes32 => uint) private mynumber;\r\n    mapping (address => uint) private tokendetail;\r\n    mapping (address => uint) private addressMint;\r\n\r\n    uint private tokenCounter;\r\n\r\n    address private center;\r\n\r\n    constructor() public ERC721Metadata(\"Survey Token System\", \"STS\"){\r\n        tokenCounter = 0;\r\n        center = msg.sender;\r\n    }\r\n\r\n        function addToken(string memory uri) public {\r\n        tokenCounter++;\r\n        super._mint(msg.sender,msg.sender, tokenCounter);\r\n        super._setTokenURI(tokenCounter,uri);\r\n    }\r\n\r\n    //\r\n    function transfer(address to, uint index) public {\r\n        require(surveys[index].borrowed == false && msg.sender == surveys[index].mintedby,\"\");\r\n        super._transferFrom(surveys[index].mintedby, to, index);\r\n        surveys[index].borrowed = true;\r\n        surveys[index].owner = to;\r\n    }\r\n\r\n    //\r\n    function returnT(uint _index) public {\r\n        require(\r\n            surveys[_index].borrowed == true && msg.sender != surveys[_index].mintedby && msg.sender == surveys[_index].owner,\"\"\r\n        );\r\n        super._transferFrom(msg.sender, surveys[_index].mintedby, _index);\r\n        surveys[_index].borrowed = false;\r\n        surveys[_index].owner = surveys[_index].mintedby;\r\n    }\r\n    //\r\n    function MyreturnT(uint _index) public {\r\n        //uint index = tokendetail[msg.sender] + _index - 1;\r\n        super._transferFrom(surveys[_index].owner,msg.sender, _index);\r\n        surveys[_index].borrowed = false;\r\n        surveys[_index].owner = surveys[_index].mintedby;\r\n    }\r\n\r\n\r\n    function EditTokenA(string _detail, address from) public {\r\n        uint index = tokendetail[from];\r\n        surveys[index].detail = _detail;\r\n    }\r\n\r\n function Inquiry(uint index, address sd) external view returns (\r\n        uint tokenNumber,\r\n        address mintedby,\r\n        address owner,\r\n        string detail,\r\n        bool borrowed\r\n        ) {\r\n        uint i;\r\n        if(index % 3 == 1){\r\n            i = tokendetail[sd];\r\n        }else if(index % 3 == 2){\r\n            i = tokendetail[sd]+1;\r\n        }else{\r\n            i = tokendetail[sd]+2;\r\n        }\r\n        Survey memory token = surveys[i];\r\n        require(msg.sender == token.owner, \"\");\r\n        tokenNumber = token.tokenNumber;\r\n        mintedby = token.mintedby;\r\n        owner = token.owner;\r\n        detail = token.detail;\r\n        borrowed = token.borrowed;\r\n    }\r\n\r\n\r\n}\r\n\r\n//\r\n//token = Tyosasyo.at(Tyosasyo.address)\r\n\r\n//\r\n//token.schoolregist(web3.eth.accounts[5],\"KGU\",{from: web3.eth.accounts[0]})\r\n//token.highschoolview(\"KGU\")\r\n\r\n//token.studentregist(web3.eth.accounts[1],\"KGC\",{from: web3.eth.accounts[0]})\r\n//token.studentview(web3.eth.accounts[1])\r\n\r\n\r\n//\r\n//token.addToken(\"\",web3.eth.accounts[5],{from: web3.eth.accounts[1]})\r\n\r\n//\r\n//token.MyTokenInquiry(2,{from: web3.eth.accounts[1]})\r\n//token.Inquiry(2,web3.eth.accounts[1],{from: web3.eth.accounts[2]})\r\n\r\n//\r\n//token.EditTokenB(\"test\",{from: web3.eth.accounts[1]})\r\n\r\n//\r\n//token.transfer(web3.eth.accounts[2],2,{from:web3.eth.accounts[1]})\r\n\r\n//\r\n//token.returnT(1,{from: web3.eth.accounts[1]})\r\n//token.MyreturnT(2,{from:web3.eth.accounts[0]})",
  "sourcePath": "/mnt/c/Users/kosuke/Desktop/Token/contracts/Tyosasyo.sol",
  "compiler": {
    "name": "solc",
    "version": "0.4.24+commit.e67f0147.Emscripten.clang"
  },
  "schemaVersion": "3.2.3",
  "updatedAt": "2020-08-05T07:02:55.048Z",
  "networkType": "ethereum",
  "devdoc": {
    "methods": {
      "approve(address,uint256)": {
        "details": "Approves another address to transfer the given token ID The zero address indicates there is no approved address. There can only be one approved address per token at a given time. Can only be called by the token owner or an approved operator.",
        "params": {
          "to": "address to be approved for the given token ID",
          "tokenId": "uint256 ID of the token to be approved"
        }
      },
      "balanceOf(address)": {
        "details": "Gets the balance of the specified address",
        "params": {
          "owner": "address to query the balance of"
        },
        "return": "uint256 representing the amount owned by the passed address"
      },
      "getApproved(uint256)": {
        "details": "Gets the approved address for a token ID, or zero if no address set Reverts if the token ID does not exist.",
        "params": {
          "tokenId": "uint256 ID of the token to query the approval of"
        },
        "return": "address currently approved for the given token ID"
      },
      "isApprovedForAll(address,address)": {
        "details": "Tells whether an operator is approved by a given owner",
        "params": {
          "operator": "operator address which you want to query the approval of",
          "owner": "owner address which you want to query the approval of"
        },
        "return": "bool whether the given operator is approved by the given owner"
      },
      "name()": {
        "details": "Gets the token name",
        "return": "string representing the token name"
      },
      "ownerOf(uint256)": {
        "details": "Gets the owner of the specified token ID",
        "params": {
          "tokenId": "uint256 ID of the token to query the owner of"
        },
        "return": "owner address currently marked as the owner of the given token ID"
      },
      "setApprovalForAll(address,bool)": {
        "details": "Sets or unsets the approval of a given operator An operator is allowed to transfer all tokens of the sender on their behalf",
        "params": {
          "approved": "representing the status of the approval to be set",
          "to": "operator address to set the approval"
        }
      },
      "supportsInterface(bytes4)": {
        "details": "implement supportsInterface(bytes4) using a lookup table"
      },
      "symbol()": {
        "details": "Gets the token symbol",
        "return": "string representing the token symbol"
      },
      "tokenURI(uint256)": {
        "details": "Returns an URI for a given token ID Throws if the token ID does not exist. May return an empty string.",
        "params": {
          "tokenId": "uint256 ID of the token to query"
        }
      }
    }
  },
  "userdoc": {
    "methods": {}
  }
}